:08000000803102288731FD2F39
:100F660016302100970008003E30210099009801B4
:100F760027009B0108008731D52787318731B7279E
:100F860087318731B327080021009D0110309D006D
:100F96001D149D149D18CD2F1D101C08F1001B0853
:100FA600F000080022008C018E01203021008C0008
:100FB60037308E0023008E0110308C00383024002C
:100FC6008C002100951322009D0108008731BE2761
:100FD60087318731C72787317108F3007008F2001F
:100FE600003073023D30031972020318FA2F2000F5
:0A0FF6008E10EC2F20008731E92F48
:020000040001F9
:04000E00E4FF4FFFBD
:00000001FF
